{
  "contractName": "BookRentalPlatform",
  "abi": [
    {
      "inputs": [],
      "stateMutability": "nonpayable",
      "type": "constructor"
    },
    {
      "anonymous": false,
      "inputs": [
        {
          "indexed": true,
          "internalType": "address",
          "name": "walletAddress",
          "type": "address"
        },
        {
          "indexed": false,
          "internalType": "uint256",
          "name": "amount",
          "type": "uint256"
        }
      ],
      "name": "BalanceWithdrawn",
      "type": "event"
    },
    {
      "anonymous": false,
      "inputs": [
        {
          "indexed": true,
          "internalType": "uint256",
          "name": "id",
          "type": "uint256"
        },
        {
          "indexed": false,
          "internalType": "string",
          "name": "name",
          "type": "string"
        },
        {
          "indexed": false,
          "internalType": "string",
          "name": "imgUrl",
          "type": "string"
        },
        {
          "indexed": false,
          "internalType": "uint256",
          "name": "rentFee",
          "type": "uint256"
        },
        {
          "indexed": false,
          "internalType": "uint256",
          "name": "saleFee",
          "type": "uint256"
        }
      ],
      "name": "BookAdded",
      "type": "event"
    },
    {
      "anonymous": false,
      "inputs": [
        {
          "indexed": true,
          "internalType": "uint256",
          "name": "id",
          "type": "uint256"
        },
        {
          "indexed": false,
          "internalType": "string",
          "name": "name",
          "type": "string"
        },
        {
          "indexed": false,
          "internalType": "string",
          "name": "imgUrl",
          "type": "string"
        },
        {
          "indexed": false,
          "internalType": "uint256",
          "name": "rentFee",
          "type": "uint256"
        },
        {
          "indexed": false,
          "internalType": "uint256",
          "name": "saleFee",
          "type": "uint256"
        }
      ],
      "name": "BookMetadataEdited",
      "type": "event"
    },
    {
      "anonymous": false,
      "inputs": [
        {
          "indexed": true,
          "internalType": "uint256",
          "name": "id",
          "type": "uint256"
        },
        {
          "indexed": false,
          "internalType": "enum BookRentalPlatform.Status",
          "name": "status",
          "type": "uint8"
        }
      ],
      "name": "BookStatusEdited",
      "type": "event"
    },
    {
      "anonymous": false,
      "inputs": [
        {
          "indexed": true,
          "internalType": "address",
          "name": "walletAddress",
          "type": "address"
        },
        {
          "indexed": true,
          "internalType": "uint256",
          "name": "bookId",
          "type": "uint256"
        }
      ],
      "name": "CheckIn",
      "type": "event"
    },
    {
      "anonymous": false,
      "inputs": [
        {
          "indexed": true,
          "internalType": "address",
          "name": "walletAddress",
          "type": "address"
        },
        {
          "indexed": true,
          "internalType": "uint256",
          "name": "bookId",
          "type": "uint256"
        }
      ],
      "name": "CheckOut",
      "type": "event"
    },
    {
      "anonymous": false,
      "inputs": [
        {
          "indexed": true,
          "internalType": "address",
          "name": "walletAddress",
          "type": "address"
        },
        {
          "indexed": false,
          "internalType": "uint256",
          "name": "amount",
          "type": "uint256"
        }
      ],
      "name": "Deposit",
      "type": "event"
    },
    {
      "anonymous": false,
      "inputs": [
        {
          "indexed": true,
          "internalType": "address",
          "name": "walletAddress",
          "type": "address"
        },
        {
          "indexed": false,
          "internalType": "uint256",
          "name": "amount",
          "type": "uint256"
        }
      ],
      "name": "PaymentMade",
      "type": "event"
    },
    {
      "anonymous": false,
      "inputs": [
        {
          "indexed": false,
          "internalType": "address",
          "name": "walletAddress",
          "type": "address"
        },
        {
          "indexed": false,
          "internalType": "string",
          "name": "name",
          "type": "string"
        },
        {
          "indexed": false,
          "internalType": "string",
          "name": "lastname",
          "type": "string"
        }
      ],
      "name": "UserAdded",
      "type": "event"
    },
    {
      "inputs": [
        {
          "internalType": "address",
          "name": "_newOwner",
          "type": "address"
        }
      ],
      "name": "setOwner",
      "outputs": [],
      "stateMutability": "nonpayable",
      "type": "function"
    },
    {
      "inputs": [
        {
          "internalType": "string",
          "name": "name",
          "type": "string"
        },
        {
          "internalType": "string",
          "name": "lastname",
          "type": "string"
        }
      ],
      "name": "addUser",
      "outputs": [],
      "stateMutability": "nonpayable",
      "type": "function"
    },
    {
      "inputs": [
        {
          "internalType": "string",
          "name": "name",
          "type": "string"
        },
        {
          "internalType": "string",
          "name": "url",
          "type": "string"
        },
        {
          "internalType": "uint256",
          "name": "rent",
          "type": "uint256"
        },
        {
          "internalType": "uint256",
          "name": "sale",
          "type": "uint256"
        }
      ],
      "name": "addBook",
      "outputs": [],
      "stateMutability": "nonpayable",
      "type": "function"
    },
    {
      "inputs": [
        {
          "internalType": "uint256",
          "name": "id",
          "type": "uint256"
        },
        {
          "internalType": "string",
          "name": "name",
          "type": "string"
        },
        {
          "internalType": "string",
          "name": "imgUrl",
          "type": "string"
        },
        {
          "internalType": "uint256",
          "name": "rentFee",
          "type": "uint256"
        },
        {
          "internalType": "uint256",
          "name": "saleFee",
          "type": "uint256"
        }
      ],
      "name": "editBookMetadata",
      "outputs": [],
      "stateMutability": "nonpayable",
      "type": "function"
    },
    {
      "inputs": [
        {
          "internalType": "uint256",
          "name": "id",
          "type": "uint256"
        },
        {
          "internalType": "enum BookRentalPlatform.Status",
          "name": "status",
          "type": "uint8"
        }
      ],
      "name": "editBookStatus",
      "outputs": [],
      "stateMutability": "nonpayable",
      "type": "function"
    },
    {
      "inputs": [
        {
          "internalType": "uint256",
          "name": "id",
          "type": "uint256"
        }
      ],
      "name": "checkOut",
      "outputs": [],
      "stateMutability": "nonpayable",
      "type": "function"
    },
    {
      "inputs": [],
      "name": "checkIn",
      "outputs": [],
      "stateMutability": "nonpayable",
      "type": "function"
    },
    {
      "inputs": [],
      "name": "deposit",
      "outputs": [],
      "stateMutability": "payable",
      "type": "function",
      "payable": true
    },
    {
      "inputs": [],
      "name": "makePayment",
      "outputs": [],
      "stateMutability": "nonpayable",
      "type": "function"
    },
    {
      "inputs": [
        {
          "internalType": "uint256",
          "name": "amount",
          "type": "uint256"
        }
      ],
      "name": "withdrawBalance",
      "outputs": [],
      "stateMutability": "nonpayable",
      "type": "function"
    },
    {
      "inputs": [
        {
          "internalType": "uint256",
          "name": "amount",
          "type": "uint256"
        }
      ],
      "name": "withdrawOwnerBalance",
      "outputs": [],
      "stateMutability": "nonpayable",
      "type": "function"
    },
    {
      "inputs": [],
      "name": "getOwner",
      "outputs": [
        {
          "internalType": "address",
          "name": "",
          "type": "address"
        }
      ],
      "stateMutability": "view",
      "type": "function",
      "constant": true
    },
    {
      "inputs": [
        {
          "internalType": "address",
          "name": "walletAddress",
          "type": "address"
        }
      ],
      "name": "getUser",
      "outputs": [
        {
          "components": [
            {
              "internalType": "address",
              "name": "walletAddress",
              "type": "address"
            },
            {
              "internalType": "string",
              "name": "name",
              "type": "string"
            },
            {
              "internalType": "string",
              "name": "lastname",
              "type": "string"
            },
            {
              "internalType": "uint256",
              "name": "rentedBookId",
              "type": "uint256"
            },
            {
              "internalType": "uint256",
              "name": "balance",
              "type": "uint256"
            },
            {
              "internalType": "uint256",
              "name": "debt",
              "type": "uint256"
            },
            {
              "internalType": "uint256",
              "name": "start",
              "type": "uint256"
            }
          ],
          "internalType": "struct BookRentalPlatform.User",
          "name": "",
          "type": "tuple"
        }
      ],
      "stateMutability": "view",
      "type": "function",
      "constant": true
    },
    {
      "inputs": [
        {
          "internalType": "uint256",
          "name": "id",
          "type": "uint256"
        }
      ],
      "name": "getBook",
      "outputs": [
        {
          "components": [
            {
              "internalType": "uint256",
              "name": "id",
              "type": "uint256"
            },
            {
              "internalType": "string",
              "name": "name",
              "type": "string"
            },
            {
              "internalType": "string",
              "name": "imgUrl",
              "type": "string"
            },
            {
              "internalType": "enum BookRentalPlatform.Status",
              "name": "status",
              "type": "uint8"
            },
            {
              "internalType": "uint256",
              "name": "rentFee",
              "type": "uint256"
            },
            {
              "internalType": "uint256",
              "name": "saleFee",
              "type": "uint256"
            }
          ],
          "internalType": "struct BookRentalPlatform.Book",
          "name": "",
          "type": "tuple"
        }
      ],
      "stateMutability": "view",
      "type": "function",
      "constant": true
    },
    {
      "inputs": [
        {
          "internalType": "enum BookRentalPlatform.Status",
          "name": "_status",
          "type": "uint8"
        }
      ],
      "name": "getBookByStatus",
      "outputs": [
        {
          "components": [
            {
              "internalType": "uint256",
              "name": "id",
              "type": "uint256"
            },
            {
              "internalType": "string",
              "name": "name",
              "type": "string"
            },
            {
              "internalType": "string",
              "name": "imgUrl",
              "type": "string"
            },
            {
              "internalType": "enum BookRentalPlatform.Status",
              "name": "status",
              "type": "uint8"
            },
            {
              "internalType": "uint256",
              "name": "rentFee",
              "type": "uint256"
            },
            {
              "internalType": "uint256",
              "name": "saleFee",
              "type": "uint256"
            }
          ],
          "internalType": "struct BookRentalPlatform.Book[]",
          "name": "",
          "type": "tuple[]"
        }
      ],
      "stateMutability": "view",
      "type": "function",
      "constant": true
    },
    {
      "inputs": [],
      "name": "getCurrentCount",
      "outputs": [
        {
          "internalType": "uint256",
          "name": "",
          "type": "uint256"
        }
      ],
      "stateMutability": "view",
      "type": "function",
      "constant": true
    },
    {
      "inputs": [],
      "name": "getContractBalance",
      "outputs": [
        {
          "internalType": "uint256",
          "name": "",
          "type": "uint256"
        }
      ],
      "stateMutability": "view",
      "type": "function",
      "constant": true
    },
    {
      "inputs": [],
      "name": "getTotalPayments",
      "outputs": [
        {
          "internalType": "uint256",
          "name": "",
          "type": "uint256"
        }
      ],
      "stateMutability": "view",
      "type": "function",
      "constant": true
    }
  ],
  "bytecode": "0x608060405234801561001057600080fd5b50600160008190555033600260006101000a81548173ffffffffffffffffffffffffffffffffffffffff021916908373ffffffffffffffffffffffffffffffffffffffff1602179055506000600381905550613cac806100716000396000f3fe6080604052600436106101095760003560e01c8063893d20e811610095578063d8d7970011610064578063d8d797001461030c578063da76d5cd14610323578063dd51babf1461034c578063e0ff5b8b14610377578063e183310b146103b457610109565b8063893d20e814610285578063b1d6b6c8146102b0578063d0e30db0146102d9578063d4c6758b146102e357610109565b806332187533116100dc57806332187533146101a05780633c69c657146101c95780636f77926b146101f25780636f9fb98a1461022f578063708f29a61461025a57610109565b8063079eaf341461010e57806313af403514610137578063183ff085146101605780631bd2eeee14610177575b600080fd5b34801561011a57600080fd5b5061013560048036038101906101309190612549565b6103f1565b005b34801561014357600080fd5b5061015e60048036038101906101599190612628565b6106af565b005b34801561016c57600080fd5b50610175610783565b005b34801561018357600080fd5b5061019e6004803603810190610199919061268b565b610a3c565b005b3480156101ac57600080fd5b506101c760048036038101906101c291906126b8565b610d2b565b005b3480156101d557600080fd5b506101f060048036038101906101eb919061268b565b610ee7565b005b3480156101fe57600080fd5b5061021960048036038101906102149190612628565b61109e565b60405161022691906128c5565b60405180910390f35b34801561023b57600080fd5b506102446112e1565b60405161025191906128f6565b60405180910390f35b34801561026657600080fd5b5061026f611379565b60405161027c91906128f6565b60405180910390f35b34801561029157600080fd5b5061029a611413565b6040516102a79190612920565b60405180910390f35b3480156102bc57600080fd5b506102d760048036038101906102d29190612960565b61143d565b005b6102e16115a0565b005b3480156102ef57600080fd5b5061030a600480360381019061030591906129a0565b611691565b005b34801561031857600080fd5b5061032161192d565b005b34801561032f57600080fd5b5061034a6004803603810190610345919061268b565b611b8c565b005b34801561035857600080fd5b50610361611dbd565b60405161036e91906128f6565b60405180910390f35b34801561038357600080fd5b5061039e6004803603810190610399919061268b565b611dce565b6040516103ab9190612b4e565b60405180910390f35b3480156103c057600080fd5b506103db60048036038101906103d69190612b70565b611fd1565b6040516103e89190612cef565b60405180910390f35b6103fa33612300565b1561043a576040517f08c379a000000000000000000000000000000000000000000000000000000000815260040161043190612d6e565b60405180910390fd5b6040518060e001604052803373ffffffffffffffffffffffffffffffffffffffff16815260200185858080601f016020809104026020016040519081016040528093929190818152602001838380828437600081840152601f19601f82011690508083019250505050505050815260200183838080601f016020809104026020016040519081016040528093929190818152602001838380828437600081840152601f19601f8201169050808301925050505050505081526020016000815260200160008152602001600081526020016000815250600460003373ffffffffffffffffffffffffffffffffffffffff1673ffffffffffffffffffffffffffffffffffffffff16815260200190815260200160002060008201518160000160006101000a81548173ffffffffffffffffffffffffffffffffffffffff021916908373ffffffffffffffffffffffffffffffffffffffff16021790555060208201518160010190816105aa9190612fc9565b5060408201518160020190816105c09190612fc9565b50606082015181600301556080820151816004015560a0820151816005015560c082015181600601559050507f8eab1db142a914aff8b515eedb9177bd7effaef6d714c41e30bdf1520677860733600460003373ffffffffffffffffffffffffffffffffffffffff1673ffffffffffffffffffffffffffffffffffffffff168152602001908152602001600020600101600460003373ffffffffffffffffffffffffffffffffffffffff1673ffffffffffffffffffffffffffffffffffffffff1681526020019081526020016000206002016040516106a19392919061311f565b60405180910390a150505050565b600260009054906101000a900473ffffffffffffffffffffffffffffffffffffffff1673ffffffffffffffffffffffffffffffffffffffff163373ffffffffffffffffffffffffffffffffffffffff161461073f576040517f08c379a0000000000000000000000000000000000000000000000000000000008152600401610736906131d6565b60405180910390fd5b80600260006101000a81548173ffffffffffffffffffffffffffffffffffffffff021916908373ffffffffffffffffffffffffffffffffffffffff16021790555050565b61078c33612300565b6107cb576040517f08c379a00000000000000000000000000000000000000000000000000000000081526004016107c290613242565b60405180910390fd5b6000600460003373ffffffffffffffffffffffffffffffffffffffff1673ffffffffffffffffffffffffffffffffffffffff16815260200190815260200160002060030154905060008103610855576040517f08c379a000000000000000000000000000000000000000000000000000000000815260040161084c906132ae565b60405180910390fd5b6000600460003373ffffffffffffffffffffffffffffffffffffffff1673ffffffffffffffffffffffffffffffffffffffff16815260200190815260200160002060060154426108a591906132fd565b90506000600560008481526020019081526020016000206004015490506108cc828261239b565b600460003373ffffffffffffffffffffffffffffffffffffffff1673ffffffffffffffffffffffffffffffffffffffff168152602001908152602001600020600501600082825461091d9190613331565b925050819055506000600460003373ffffffffffffffffffffffffffffffffffffffff1673ffffffffffffffffffffffffffffffffffffffff168152602001908152602001600020600301819055506000600460003373ffffffffffffffffffffffffffffffffffffffff1673ffffffffffffffffffffffffffffffffffffffff1681526020019081526020016000206006018190555060026005600085815260200190815260200160002060030160006101000a81548160ff021916908360028111156109ee576109ed612a47565b5b0217905550823373ffffffffffffffffffffffffffffffffffffffff167fa864a8b988e604bb05d6ce75d53efabb5620c45b15380b7bd0c51dcfa71dda0360405160405180910390a3505050565b610a4533612300565b610a84576040517f08c379a0000000000000000000000000000000000000000000000000000000008152600401610a7b906133b1565b60405180910390fd5b600280811115610a9757610a96612a47565b5b6005600083815260200190815260200160002060030160009054906101000a900460ff166002811115610acd57610acc612a47565b5b14610b0d576040517f08c379a0000000000000000000000000000000000000000000000000000000008152600401610b049061341d565b60405180910390fd5b6000600460003373ffffffffffffffffffffffffffffffffffffffff1673ffffffffffffffffffffffffffffffffffffffff1681526020019081526020016000206003015414610b92576040517f08c379a0000000000000000000000000000000000000000000000000000000008152600401610b8990613489565b60405180910390fd5b6000600460003373ffffffffffffffffffffffffffffffffffffffff1673ffffffffffffffffffffffffffffffffffffffff1681526020019081526020016000206005015414610c17576040517f08c379a0000000000000000000000000000000000000000000000000000000008152600401610c0e906134f5565b60405180910390fd5b42600460003373ffffffffffffffffffffffffffffffffffffffff1673ffffffffffffffffffffffffffffffffffffffff1681526020019081526020016000206006018190555080600460003373ffffffffffffffffffffffffffffffffffffffff1673ffffffffffffffffffffffffffffffffffffffff1681526020019081526020016000206003018190555060016005600083815260200190815260200160002060030160006101000a81548160ff02191690836002811115610cdf57610cde612a47565b5b0217905550803373ffffffffffffffffffffffffffffffffffffffff167ff65ce03794824579bcd95d8c6743ffc10c4a5e7405fb3876c1abf81453105c4260405160405180910390a350565b600260009054906101000a900473ffffffffffffffffffffffffffffffffffffffff1673ffffffffffffffffffffffffffffffffffffffff163373ffffffffffffffffffffffffffffffffffffffff1614610dbb576040517f08c379a0000000000000000000000000000000000000000000000000000000008152600401610db2906131d6565b60405180910390fd5b6000600560008981526020019081526020016000206000015403610e14576040517f08c379a0000000000000000000000000000000000000000000000000000000008152600401610e0b90613587565b60405180910390fd5b600060056000898152602001908152602001600020905060008787905014610e4b578686826001019182610e499291906135b2565b505b60008585905014610e6b578484826002019182610e699291906135b2565b505b6000831115610e7e578281600401819055505b6000821115610e91578181600501819055505b877f962ee415106e53a4e1af2a14772262c4fd5e4f7c95d0179050cec4f03bc3fedd826001018360020184600401548560050154604051610ed59493929190613682565b60405180910390a25050505050505050565b600260009054906101000a900473ffffffffffffffffffffffffffffffffffffffff1673ffffffffffffffffffffffffffffffffffffffff163373ffffffffffffffffffffffffffffffffffffffff1614610f77576040517f08c379a0000000000000000000000000000000000000000000000000000000008152600401610f6e906131d6565b60405180910390fd5b806003541015610fbc576040517f08c379a0000000000000000000000000000000000000000000000000000000008152600401610fb390613747565b60405180910390fd5b6000600260009054906101000a900473ffffffffffffffffffffffffffffffffffffffff1673ffffffffffffffffffffffffffffffffffffffff168260405161100490613798565b60006040518083038185875af1925050503d8060008114611041576040519150601f19603f3d011682016040523d82523d6000602084013e611046565b606091505b505090508061108a576040517f08c379a0000000000000000000000000000000000000000000000000000000008152600401611081906137f9565b60405180910390fd5b816003600082825403925050819055505050565b6110a661243f565b6110af82612300565b6110ee576040517f08c379a00000000000000000000000000000000000000000000000000000000081526004016110e590613865565b60405180910390fd5b600460008373ffffffffffffffffffffffffffffffffffffffff1673ffffffffffffffffffffffffffffffffffffffff1681526020019081526020016000206040518060e00160405290816000820160009054906101000a900473ffffffffffffffffffffffffffffffffffffffff1673ffffffffffffffffffffffffffffffffffffffff1673ffffffffffffffffffffffffffffffffffffffff16815260200160018201805461119e90612dec565b80601f01602080910402602001604051908101604052809291908181526020018280546111ca90612dec565b80156112175780601f106111ec57610100808354040283529160200191611217565b820191906000526020600020905b8154815290600101906020018083116111fa57829003601f168201915b5050505050815260200160028201805461123090612dec565b80601f016020809104026020016040519081016040528092919081815260200182805461125c90612dec565b80156112a95780601f1061127e576101008083540402835291602001916112a9565b820191906000526020600020905b81548152906001019060200180831161128c57829003601f168201915b505050505081526020016003820154815260200160048201548152602001600582015481526020016006820154815250509050919050565b6000600260009054906101000a900473ffffffffffffffffffffffffffffffffffffffff1673ffffffffffffffffffffffffffffffffffffffff163373ffffffffffffffffffffffffffffffffffffffff1614611373576040517f08c379a000000000000000000000000000000000000000000000000000000000815260040161136a906131d6565b60405180910390fd5b47905090565b6000600260009054906101000a900473ffffffffffffffffffffffffffffffffffffffff1673ffffffffffffffffffffffffffffffffffffffff163373ffffffffffffffffffffffffffffffffffffffff161461140b576040517f08c379a0000000000000000000000000000000000000000000000000000000008152600401611402906131d6565b60405180910390fd5b600354905090565b6000600260009054906101000a900473ffffffffffffffffffffffffffffffffffffffff16905090565b600260009054906101000a900473ffffffffffffffffffffffffffffffffffffffff1673ffffffffffffffffffffffffffffffffffffffff163373ffffffffffffffffffffffffffffffffffffffff16146114cd576040517f08c379a00000000000000000000000000000000000000000000000000000000081526004016114c4906131d6565b60405180910390fd5b6000600560008481526020019081526020016000206000015403611526576040517f08c379a000000000000000000000000000000000000000000000000000000000815260040161151d906138f7565b60405180910390fd5b806005600084815260200190815260200160002060030160006101000a81548160ff0219169083600281111561155f5761155e612a47565b5b0217905550817ffd22c12703bdea3c8ec51f67d82be377f2381374dbe55209d78890e6ce24a9ff826040516115949190613926565b60405180910390a25050565b6115a933612300565b6115e8576040517f08c379a00000000000000000000000000000000000000000000000000000000081526004016115df90613865565b60405180910390fd5b34600460003373ffffffffffffffffffffffffffffffffffffffff1673ffffffffffffffffffffffffffffffffffffffff168152602001908152602001600020600401600082825461163a9190613331565b925050819055503373ffffffffffffffffffffffffffffffffffffffff167fe1fffcc4923d04b559f4d29a8bfc6cda04eb5b0d3c460751c2402c5c5cc9109c3460405161168791906128f6565b60405180910390a2565b600260009054906101000a900473ffffffffffffffffffffffffffffffffffffffff1673ffffffffffffffffffffffffffffffffffffffff163373ffffffffffffffffffffffffffffffffffffffff1614611721576040517f08c379a0000000000000000000000000000000000000000000000000000000008152600401611718906131d6565b60405180910390fd5b61172b60016123c2565b600061173760016123d8565b90506040518060c0016040528082815260200188888080601f016020809104026020016040519081016040528093929190818152602001838380828437600081840152601f19601f82011690508083019250505050505050815260200186868080601f016020809104026020016040519081016040528093929190818152602001838380828437600081840152601f19601f8201169050808301925050505050505081526020016002808111156117f1576117f0612a47565b5b815260200184815260200183815250600560008381526020019081526020016000206000820151816000015560208201518160010190816118329190612fc9565b5060408201518160020190816118489190612fc9565b5060608201518160030160006101000a81548160ff0219169083600281111561187457611873612a47565b5b02179055506080820151816004015560a08201518160050155905050807f722c04650224f771c04ec5712c74689980b3ddb4eaa233cd8f9c72d7da7fbe2960056000848152602001908152602001600020600101600560008581526020019081526020016000206002016005600086815260200190815260200160002060040154600560008781526020019081526020016000206005015460405161191c9493929190613682565b60405180910390a250505050505050565b61193633612300565b611975576040517f08c379a000000000000000000000000000000000000000000000000000000000815260040161196c90613865565b60405180910390fd5b6000600460003373ffffffffffffffffffffffffffffffffffffffff1673ffffffffffffffffffffffffffffffffffffffff1681526020019081526020016000206005015490506000600460003373ffffffffffffffffffffffffffffffffffffffff1673ffffffffffffffffffffffffffffffffffffffff16815260200190815260200160002060040154905060008211611a46576040517f08c379a0000000000000000000000000000000000000000000000000000000008152600401611a3d9061398d565b60405180910390fd5b81811015611a89576040517f08c379a0000000000000000000000000000000000000000000000000000000008152600401611a80906139f9565b60405180910390fd5b81600460003373ffffffffffffffffffffffffffffffffffffffff1673ffffffffffffffffffffffffffffffffffffffff168152602001908152602001600020600401600082825403925050819055508160036000828254611aeb9190613331565b925050819055506000600460003373ffffffffffffffffffffffffffffffffffffffff1673ffffffffffffffffffffffffffffffffffffffff168152602001908152602001600020600501819055503373ffffffffffffffffffffffffffffffffffffffff167f3a2d0e41c506b136330c6e5e0295ccbf0966daece99bfe7c89020cc01dbfb8d683604051611b8091906128f6565b60405180910390a25050565b611b946123e6565b611b9d33612300565b611bdc576040517f08c379a0000000000000000000000000000000000000000000000000000000008152600401611bd390613865565b60405180910390fd5b6000600460003373ffffffffffffffffffffffffffffffffffffffff1673ffffffffffffffffffffffffffffffffffffffff16815260200190815260200160002060040154905081811015611c66576040517f08c379a0000000000000000000000000000000000000000000000000000000008152600401611c5d90613a65565b60405180910390fd5b81600460003373ffffffffffffffffffffffffffffffffffffffff1673ffffffffffffffffffffffffffffffffffffffff1681526020019081526020016000206004016000828254039250508190555060003373ffffffffffffffffffffffffffffffffffffffff1683604051611cdc90613798565b60006040518083038185875af1925050503d8060008114611d19576040519150601f19603f3d011682016040523d82523d6000602084013e611d1e565b606091505b5050905080611d62576040517f08c379a0000000000000000000000000000000000000000000000000000000008152600401611d59906137f9565b60405180910390fd5b3373ffffffffffffffffffffffffffffffffffffffff167fddc398b321237a8d40ac914388309c2f52a08c134e4dc4ce61e32f57cb7d80f184604051611da891906128f6565b60405180910390a25050611dba612435565b50565b6000611dc960016123d8565b905090565b611dd6612492565b6000600560008481526020019081526020016000206000015403611e2f576040517f08c379a0000000000000000000000000000000000000000000000000000000008152600401611e2690613ad1565b60405180910390fd5b600560008381526020019081526020016000206040518060c001604052908160008201548152602001600182018054611e6790612dec565b80601f0160208091040260200160405190810160405280929190818152602001828054611e9390612dec565b8015611ee05780601f10611eb557610100808354040283529160200191611ee0565b820191906000526020600020905b815481529060010190602001808311611ec357829003601f168201915b50505050508152602001600282018054611ef990612dec565b80601f0160208091040260200160405190810160405280929190818152602001828054611f2590612dec565b8015611f725780601f10611f4757610100808354040283529160200191611f72565b820191906000526020600020905b815481529060010190602001808311611f5557829003601f168201915b505050505081526020016003820160009054906101000a900460ff166002811115611fa057611f9f612a47565b5b6002811115611fb257611fb1612a47565b5b8152602001600482015481526020016005820154815250509050919050565b6060600080611fe060016123d8565b90506000600190505b8181116120605784600281111561200357612002612a47565b5b6005600083815260200190815260200160002060030160009054906101000a900460ff16600281111561203957612038612a47565b5b0361204d57828061204990613af1565b9350505b808061205890613af1565b915050611fe9565b5060008267ffffffffffffffff81111561207d5761207c612d8e565b5b6040519080825280602002602001820160405280156120b657816020015b6120a3612492565b81526020019060019003908161209b5790505b509050600092506000600190505b8281116122f4578560028111156120de576120dd612a47565b5b6005600083815260200190815260200160002060030160009054906101000a900460ff16600281111561211457612113612a47565b5b036122e157600560008281526020019081526020016000206040518060c00160405290816000820154815260200160018201805461215190612dec565b80601f016020809104026020016040519081016040528092919081815260200182805461217d90612dec565b80156121ca5780601f1061219f576101008083540402835291602001916121ca565b820191906000526020600020905b8154815290600101906020018083116121ad57829003601f168201915b505050505081526020016002820180546121e390612dec565b80601f016020809104026020016040519081016040528092919081815260200182805461220f90612dec565b801561225c5780601f106122315761010080835404028352916020019161225c565b820191906000526020600020905b81548152906001019060200180831161223f57829003601f168201915b505050505081526020016003820160009054906101000a900460ff16600281111561228a57612289612a47565b5b600281111561229c5761229b612a47565b5b8152602001600482015481526020016005820154815250508285815181106122c7576122c6613b39565b5b602002602001018190525083806122dd90613af1565b9450505b80806122ec90613af1565b9150506120c4565b50809350505050919050565b60008073ffffffffffffffffffffffffffffffffffffffff16600460008473ffffffffffffffffffffffffffffffffffffffff1673ffffffffffffffffffffffffffffffffffffffff16815260200190815260200160002060000160009054906101000a900473ffffffffffffffffffffffffffffffffffffffff1673ffffffffffffffffffffffffffffffffffffffff1614159050919050565b600080603c846123ab9190613b97565b905082816123b99190613bc8565b91505092915050565b6001816000016000828254019250508190555050565b600081600001549050919050565b60026000540361242b576040517f08c379a000000000000000000000000000000000000000000000000000000000815260040161242290613c56565b60405180910390fd5b6002600081905550565b6001600081905550565b6040518060e00160405280600073ffffffffffffffffffffffffffffffffffffffff1681526020016060815260200160608152602001600081526020016000815260200160008152602001600081525090565b6040518060c00160405280600081526020016060815260200160608152602001600060028111156124c6576124c5612a47565b5b815260200160008152602001600081525090565b600080fd5b600080fd5b600080fd5b600080fd5b600080fd5b60008083601f840112612509576125086124e4565b5b8235905067ffffffffffffffff811115612526576125256124e9565b5b602083019150836001820283011115612542576125416124ee565b5b9250929050565b60008060008060408587031215612563576125626124da565b5b600085013567ffffffffffffffff811115612581576125806124df565b5b61258d878288016124f3565b9450945050602085013567ffffffffffffffff8111156125b0576125af6124df565b5b6125bc878288016124f3565b925092505092959194509250565b600073ffffffffffffffffffffffffffffffffffffffff82169050919050565b60006125f5826125ca565b9050919050565b612605816125ea565b811461261057600080fd5b50565b600081359050612622816125fc565b92915050565b60006020828403121561263e5761263d6124da565b5b600061264c84828501612613565b91505092915050565b6000819050919050565b61266881612655565b811461267357600080fd5b50565b6000813590506126858161265f565b92915050565b6000602082840312156126a1576126a06124da565b5b60006126af84828501612676565b91505092915050565b600080600080600080600060a0888a0312156126d7576126d66124da565b5b60006126e58a828b01612676565b975050602088013567ffffffffffffffff811115612706576127056124df565b5b6127128a828b016124f3565b9650965050604088013567ffffffffffffffff811115612735576127346124df565b5b6127418a828b016124f3565b945094505060606127548a828b01612676565b92505060806127658a828b01612676565b91505092959891949750929550565b61277d816125ea565b82525050565b600081519050919050565b600082825260208201905092915050565b60005b838110156127bd5780820151818401526020810190506127a2565b60008484015250505050565b6000601f19601f8301169050919050565b60006127e582612783565b6127ef818561278e565b93506127ff81856020860161279f565b612808816127c9565b840191505092915050565b61281c81612655565b82525050565b600060e08301600083015161283a6000860182612774565b506020830151848203602086015261285282826127da565b9150506040830151848203604086015261286c82826127da565b91505060608301516128816060860182612813565b5060808301516128946080860182612813565b5060a08301516128a760a0860182612813565b5060c08301516128ba60c0860182612813565b508091505092915050565b600060208201905081810360008301526128df8184612822565b905092915050565b6128f081612655565b82525050565b600060208201905061290b60008301846128e7565b92915050565b61291a816125ea565b82525050565b60006020820190506129356000830184612911565b92915050565b6003811061294857600080fd5b50565b60008135905061295a8161293b565b92915050565b60008060408385031215612977576129766124da565b5b600061298585828601612676565b92505060206129968582860161294b565b9150509250929050565b600080600080600080608087890312156129bd576129bc6124da565b5b600087013567ffffffffffffffff8111156129db576129da6124df565b5b6129e789828a016124f3565b9650965050602087013567ffffffffffffffff811115612a0a57612a096124df565b5b612a1689828a016124f3565b94509450506040612a2989828a01612676565b9250506060612a3a89828a01612676565b9150509295509295509295565b7f4e487b7100000000000000000000000000000000000000000000000000000000600052602160045260246000fd5b60038110612a8757612a86612a47565b5b50565b6000819050612a9882612a76565b919050565b6000612aa882612a8a565b9050919050565b612ab881612a9d565b82525050565b600060c083016000830151612ad66000860182612813565b5060208301518482036020860152612aee82826127da565b91505060408301518482036040860152612b0882826127da565b9150506060830151612b1d6060860182612aaf565b506080830151612b306080860182612813565b5060a0830151612b4360a0860182612813565b508091505092915050565b60006020820190508181036000830152612b688184612abe565b905092915050565b600060208284031215612b8657612b856124da565b5b6000612b948482850161294b565b91505092915050565b600081519050919050565b600082825260208201905092915050565b6000819050602082019050919050565b600060c083016000830151612be16000860182612813565b5060208301518482036020860152612bf982826127da565b91505060408301518482036040860152612c1382826127da565b9150506060830151612c286060860182612aaf565b506080830151612c3b6080860182612813565b5060a0830151612c4e60a0860182612813565b508091505092915050565b6000612c658383612bc9565b905092915050565b6000602082019050919050565b6000612c8582612b9d565b612c8f8185612ba8565b935083602082028501612ca185612bb9565b8060005b85811015612cdd5784840389528151612cbe8582612c59565b9450612cc983612c6d565b925060208a01995050600181019050612ca5565b50829750879550505050505092915050565b60006020820190508181036000830152612d098184612c7a565b905092915050565b600082825260208201905092915050565b7f5573657220616c72656164792065786973747300000000000000000000000000600082015250565b6000612d58601383612d11565b9150612d6382612d22565b602082019050919050565b60006020820190508181036000830152612d8781612d4b565b9050919050565b7f4e487b7100000000000000000000000000000000000000000000000000000000600052604160045260246000fd5b7f4e487b7100000000000000000000000000000000000000000000000000000000600052602260045260246000fd5b60006002820490506001821680612e0457607f821691505b602082108103612e1757612e16612dbd565b5b50919050565b60008190508160005260206000209050919050565b60006020601f8301049050919050565b600082821b905092915050565b600060088302612e7f7fffffffffffffffffffffffffffffffffffffffffffffffffffffffffffffffff82612e42565b612e898683612e42565b95508019841693508086168417925050509392505050565b6000819050919050565b6000612ec6612ec1612ebc84612655565b612ea1565b612655565b9050919050565b6000819050919050565b612ee083612eab565b612ef4612eec82612ecd565b848454612e4f565b825550505050565b600090565b612f09612efc565b612f14818484612ed7565b505050565b5b81811015612f3857612f2d600082612f01565b600181019050612f1a565b5050565b601f821115612f7d57612f4e81612e1d565b612f5784612e32565b81016020851015612f66578190505b612f7a612f7285612e32565b830182612f19565b50505b505050565b600082821c905092915050565b6000612fa060001984600802612f82565b1980831691505092915050565b6000612fb98383612f8f565b9150826002028217905092915050565b612fd282612783565b67ffffffffffffffff811115612feb57612fea612d8e565b5b612ff58254612dec565b613000828285612f3c565b600060209050601f8311600181146130335760008415613021578287015190505b61302b8582612fad565b865550613093565b601f19841661304186612e1d565b60005b8281101561306957848901518255600182019150602085019450602081019050613044565b868310156130865784890151613082601f891682612f8f565b8355505b6001600288020188555050505b505050505050565b600081546130a881612dec565b6130b28186612d11565b945060018216600081146130cd57600181146130e357613116565b60ff198316865281151560200286019350613116565b6130ec85612e1d565b60005b8381101561310e578154818901526001820191506020810190506130ef565b808801955050505b50505092915050565b60006060820190506131346000830186612911565b8181036020830152613146818561309b565b9050818103604083015261315a818461309b565b9050949350505050565b7f4f6e6c7920746865206f776e65722063616e2063616c6c20746869732066756e60008201527f6374696f6e000000000000000000000000000000000000000000000000000000602082015250565b60006131c0602583612d11565b91506131cb82613164565b604082019050919050565b600060208201905081810360008301526131ef816131b3565b9050919050565b7f5573657220646f6573206e6f7420657869737473210000000000000000000000600082015250565b600061322c601583612d11565b9150613237826131f6565b602082019050919050565b6000602082019050818103600083015261325b8161321f565b9050919050565b7f5573657220686173206e6f742072656e746564206120626f6f6b000000000000600082015250565b6000613298601a83612d11565b91506132a382613262565b602082019050919050565b600060208201905081810360008301526132c78161328b565b9050919050565b7f4e487b7100000000000000000000000000000000000000000000000000000000600052601160045260246000fd5b600061330882612655565b915061331383612655565b925082820390508181111561332b5761332a6132ce565b5b92915050565b600061333c82612655565b915061334783612655565b925082820190508082111561335f5761335e6132ce565b5b92915050565b7f5573657220646f6573206e6f7420657869737421000000000000000000000000600082015250565b600061339b601483612d11565b91506133a682613365565b602082019050919050565b600060208201905081810360008301526133ca8161338e565b9050919050565b7f426f6f6b206973206e6f7420417661696c61626c6520666f7220757365000000600082015250565b6000613407601d83612d11565b9150613412826133d1565b602082019050919050565b60006020820190508181036000830152613436816133fa565b9050919050565b7f557365722068617320616c72656164792072656e746564206120626f6f6b0000600082015250565b6000613473601e83612d11565b915061347e8261343d565b602082019050919050565b600060208201905081810360008301526134a281613466565b9050919050565b7f557365722068617320616e206f75747374616e64696e67206465627421000000600082015250565b60006134df601d83612d11565b91506134ea826134a9565b602082019050919050565b6000602082019050818103600083015261350e816134d2565b9050919050565b7f426f6f6b207769746820676976656e20494420646f6573206e6f74206578697360008201527f7473000000000000000000000000000000000000000000000000000000000000602082015250565b6000613571602283612d11565b915061357c82613515565b604082019050919050565b600060208201905081810360008301526135a081613564565b9050919050565b600082905092915050565b6135bc83836135a7565b67ffffffffffffffff8111156135d5576135d4612d8e565b5b6135df8254612dec565b6135ea828285612f3c565b6000601f8311600181146136195760008415613607578287013590505b6136118582612fad565b865550613679565b601f19841661362786612e1d565b60005b8281101561364f5784890135825560018201915060208501945060208101905061362a565b8683101561366c5784890135613668601f891682612f8f565b8355505b6001600288020188555050505b50505050505050565b6000608082019050818103600083015261369c818761309b565b905081810360208301526136b0818661309b565b90506136bf60408301856128e7565b6136cc60608301846128e7565b95945050505050565b7f496e73756666696369656e7420636f6e74726163742062616c616e636520746f60008201527f2077697468647261770000000000000000000000000000000000000000000000602082015250565b6000613731602983612d11565b915061373c826136d5565b604082019050919050565b6000602082019050818103600083015261376081613724565b9050919050565b600081905092915050565b50565b6000613782600083613767565b915061378d82613772565b600082019050919050565b60006137a382613775565b9150819050919050565b7f5472616e73666572206661696c65640000000000000000000000000000000000600082015250565b60006137e3600f83612d11565b91506137ee826137ad565b602082019050919050565b60006020820190508181036000830152613812816137d6565b9050919050565b7f5573657220646f6573206e6f7420657869737400000000000000000000000000600082015250565b600061384f601383612d11565b915061385a82613819565b602082019050919050565b6000602082019050818103600083015261387e81613842565b9050919050565b7f426f6f6b207769746820676976656e20696420646f6573206e6f74206578697360008201527f7400000000000000000000000000000000000000000000000000000000000000602082015250565b60006138e1602183612d11565b91506138ec82613885565b604082019050919050565b60006020820190508181036000830152613910816138d4565b9050919050565b61392081612a9d565b82525050565b600060208201905061393b6000830184613917565b92915050565b7f5573657220686173206e6f206465627420746f20706179000000000000000000600082015250565b6000613977601783612d11565b915061398282613941565b602082019050919050565b600060208201905081810360008301526139a68161396a565b9050919050565b7f557365722068617320696e73756666696369656e742062616c616e6365000000600082015250565b60006139e3601d83612d11565b91506139ee826139ad565b602082019050919050565b60006020820190508181036000830152613a12816139d6565b9050919050565b7f496e73756666696369656e742062616c616e636520746f207769746864726177600082015250565b6000613a4f602083612d11565b9150613a5a82613a19565b602082019050919050565b60006020820190508181036000830152613a7e81613a42565b9050919050565b7f426f6f6b20646f6573206e6f7420657869737400000000000000000000000000600082015250565b6000613abb601383612d11565b9150613ac682613a85565b602082019050919050565b60006020820190508181036000830152613aea81613aae565b9050919050565b6000613afc82612655565b91507fffffffffffffffffffffffffffffffffffffffffffffffffffffffffffffffff8203613b2e57613b2d6132ce565b5b600182019050919050565b7f4e487b7100000000000000000000000000000000000000000000000000000000600052603260045260246000fd5b7f4e487b7100000000000000000000000000000000000000000000000000000000600052601260045260246000fd5b6000613ba282612655565b9150613bad83612655565b925082613bbd57613bbc613b68565b5b828204905092915050565b6000613bd382612655565b9150613bde83612655565b9250828202613bec81612655565b91508282048414831517613c0357613c026132ce565b5b5092915050565b7f5265656e7472616e637947756172643a207265656e7472616e742063616c6c00600082015250565b6000613c40601f83612d11565b9150613c4b82613c0a565b602082019050919050565b60006020820190508181036000830152613c6f81613c33565b905091905056fea264697066735822122013c17bf480aeec6806d010811f61d3f6f15faad422adabf211855d28460ab07a64736f6c63430008130033",
  "immutableReferences": {},
  "source": "// SPDX-License-Identifier: MIT\npragma solidity ^0.8.7;\n\nimport \"../node_modules/@openzeppelin/contracts/utils/Counters.sol\";\nimport \"../node_modules/@openzeppelin/contracts/security/ReentrancyGuard.sol\";\n\n\ncontract BookRentalPlatform is ReentrancyGuard {\n     // DATA\n     // Counter \n     using Counters for Counters.Counter;\n     Counters.Counter private _counter;\n\n\n     // Owner \n     address private owner;\n\n\n     // totalPayments\n     uint private totalPayments;\n\n\n     // user struct\n     struct User{\n          address walletAddress;\n          string name;\n          string lastname;\n          uint rentedBookId;\n          uint balance;\n          uint debt;\n          uint start;\n\n     }\n\n\n     // book struct\n     struct Book{\n          uint id;\n          string name;\n          string imgUrl;\n          Status status;\n          uint rentFee;\n          uint saleFee;\n\n\n     }\n\n\n     // enum to indicate status of the book\n     enum Status{\n          Retired,\n          InUse,\n          Available\n\n     }\n\n\n     // events\n     event BookAdded(uint indexed id,string name,string imgUrl,uint rentFee,uint saleFee);\n     event BookMetadataEdited(uint indexed id,string name,string imgUrl,uint rentFee,uint saleFee);\n     event BookStatusEdited(uint indexed id,Status status);\n     event UserAdded(address walletAddress,string name,string lastname);\n     event Deposit(address indexed walletAddress,uint amount);\n     event CheckOut(address indexed walletAddress,uint indexed bookId);\n     event CheckIn(address indexed walletAddress,uint indexed bookId);\n     event PaymentMade(address indexed walletAddress,uint amount);\n     event BalanceWithdrawn(address indexed walletAddress,uint amount);\n\n\n     // user mapping  \n     mapping(address => User) private users;\n\n\n     // book mapping \n     mapping(uint => Book) private books;\n\n\n     // constructor \n     constructor() {\n          owner = msg.sender;\n          totalPayments = 0;\n     }\n     \n\n     // MODIFIERS\n     // onlyOwner \n     modifier onlyOwner() {\n          require(msg.sender == owner,\"Only the owner can call this function\");\n          _;\n     }\n\n\n     // FUNCTIONS \n     // Execute Function \n\n\n     // setOwner #onlyOwner\n     function setOwner(address _newOwner) external onlyOwner{\n          owner = _newOwner;\n     }\n\n\n     // addUser #nonExisting\n     function addUser(string calldata name, string calldata lastname) external {\n          require(!isUser(msg.sender),\"User already exists\");\n          users[msg.sender] = User(msg.sender, name, lastname, 0, 0, 0, 0);\n\n          emit UserAdded(msg.sender, users[msg.sender].name, users[msg.sender].lastname);\n     }\n\n\n     // addBook #onlyOwner #nonExistingBook\n     function addBook(string calldata name, string calldata url, uint rent, uint sale) external onlyOwner{\n          _counter.increment();\n          uint counter = _counter.current();\n          books[counter] = Book(counter, name, url, Status.Available, rent, sale);\n\n          emit BookAdded(counter, books[counter].name, books[counter].imgUrl, books[counter].rentFee, books[counter].saleFee);\n     }\n\n\n     // editBookMetadata #onlyOwner #existingBook \n     function editBookMetadata(uint id, string calldata name, string calldata imgUrl, uint rentFee, uint saleFee) external onlyOwner{\n          require(books[id].id != 0,\"Book with given ID does not exists\");\n          Book storage book = books[id];\n          if(bytes(name).length != 0){\n               book.name = name;\n          }\n          if(bytes(imgUrl).length != 0){\n               book.imgUrl = imgUrl;\n          }\n          if( rentFee > 0){\n               book.rentFee = rentFee;\n          }\n          if( saleFee > 0){\n               book.saleFee = saleFee;\n          }\n\n          emit BookMetadataEdited(id, book.name, book.imgUrl, book.rentFee, book.saleFee);\n\n     }\n\n\n     //editBookStatus #onlyOwner #existingBook\n     function editBookStatus(uint id, Status status) external onlyOwner{\n          require(books[id].id != 0, \"Book with given id does not exist\");\n          books[id].status = status;\n\n          emit BookStatusEdited(id, status);\n     }\n\n\n     // checkOut #existingUser #isBagAvaliable #userHasNotRentedABook #userHasNoDebt\n     function checkOut(uint id) external {\n          require(isUser(msg.sender), \"User does not exist!\");\n          require(books[id].status == Status.Available, \"Book is not Available for use\");\n          require(users[msg.sender].rentedBookId == 0, \"User has already rented a book\");\n          require(users[msg.sender].debt == 0, \"User has an outstanding debt!\");\n\n          users[msg.sender].start = block.timestamp;\n          users[msg.sender].rentedBookId = id;\n          books[id].status = Status.InUse;\n\n          emit CheckOut(msg.sender, id);\n     }\n\n\n     // chechIn #existingUser #userHasRentedABook \n     function checkIn() external {\n          require(isUser(msg.sender), \"User does not exists!\");\n          uint rentedBookId = users[msg.sender].rentedBookId;\n          require(rentedBookId != 0, \"User has not rented a book\");\n\n          uint usedSeconds = block.timestamp - users[msg.sender].start;\n          uint rentFee = books[rentedBookId].rentFee;\n          users[msg.sender].debt += calculateDebt(usedSeconds, rentFee);\n\n          users[msg.sender].rentedBookId = 0;\n          users[msg.sender].start = 0;\n          books[rentedBookId].status = Status.Available;\n\n          emit CheckIn(msg.sender, rentedBookId);\n     }\n     \n\n     // deposit #existingUser \n     function deposit() external payable{\n          require(isUser(msg.sender), \"User does not exist\");\n          users[msg.sender].balance += msg.value;\n\n          emit Deposit(msg.sender, msg.value);\n     }\n\n\n     // makePayment #existingUser #existingDebt #suffiecientBalance\n     function makePayment() external {\n          require(isUser(msg.sender), \"User does not exist\");\n          uint debt = users[msg.sender].debt;\n          uint balance = users[msg.sender].balance;\n\n          require(debt > 0, \"User has no debt to pay\");\n          require(balance >= debt, \"User has insufficient balance\");\n\n          unchecked {\n               users[msg.sender].balance -= debt;\n          }\n          totalPayments += debt;\n          users[msg.sender].debt = 0;\n\n          emit PaymentMade(msg.sender, debt);\n     }\n\n\n     // withdrawBalance #existingUser\n     function withdrawBalance(uint amount) external nonReentrant {\n          require(isUser(msg.sender), \"User does not exist\");\n          uint balance = users[msg.sender].balance;\n          require(balance >= amount, \"Insufficient balance to withdraw\");\n\n          unchecked {\n               users[msg.sender].balance -= amount;\n          }\n\n          (bool success, ) = msg.sender.call{value: amount}(\"\");\n          require(success, \"Transfer failed\");\n\n          emit BalanceWithdrawn(msg.sender, amount);\n     }\n\n\n     // withdrawOwnerBalance #onlyOwner \n     function withdrawOwnerBalance(uint amount) external onlyOwner {\n          require(totalPayments >= amount, \"Insufficient contract balance to withdraw\");\n\n          (bool success, ) = owner.call{value: amount}(\"\");\n          require(success, \"Transfer failed\");\n\n          unchecked {\n               totalPayments -= amount;\n          }\n     }\n\n\n     // Query Functions \n     // getOwner \n     function getOwner() external view returns(address){\n          return owner;\n     }\n\n\n     // isUser\n     function isUser(address walletAddress) private view returns(bool){\n          return users[walletAddress].walletAddress != address(0);\n     }\n\n\n     // getUser #existingUser\n     function getUser(address walletAddress) external view returns(User memory){\n          require(isUser(walletAddress), \"User does not exist\");\n          return users[walletAddress];\n     }\n\n\n     // getBook #existingBook \n     function getBook(uint id) external view returns(Book memory){\n          require(books[id].id != 0, \"Book does not exist\");\n          return books[id];\n     }\n\n\n     // getBookByStatus\n     function getBookByStatus(Status _status) external view returns(Book[] memory){\n          uint count = 0;\n          uint lenght = _counter.current();\n          for(uint i = 1;i <= lenght; i++ ){\n               if(books[i].status == _status){\n                    count ++;\n               }\n          }\n          Book[] memory booksWithStatus = new Book[](count);\n          count = 0;\n          for (uint i = 1; i <=  lenght; i++) {\n               if(books[i].status == _status){\n                    booksWithStatus[count] = books[i];\n                    count ++;\n               }\n               \n          }\n          return booksWithStatus;\n     }\n\n\n     // calculateDebt\n     function calculateDebt(uint usedSeconds,uint rentFee) private pure returns(uint){\n          uint usedMinutes = usedSeconds / 60;\n          return usedMinutes * rentFee;\n     } \n\n\n     // getCurrentCount\n     function getCurrentCount() external view returns(uint){\n          return _counter.current();\n     }\n\n\n     // getContractBalance #onlyOwner\n     function getContractBalance() external view onlyOwner returns(uint){\n          return address(this).balance;\n     }\n\n\n     // getTotalPayments #onlyOwner  \n     function getTotalPayments() external view onlyOwner returns(uint){\n          return totalPayments;\n     }\n\n}\n",
  "sourcePath": "C:\\Users\\BEYZA-1907\\Desktop\\new\\kkk\\contracts\\BookRentalPlatform.sol",
  "compiler": {
    "name": "solc",
    "version": "0.8.19+commit.7dd6d404.Emscripten.clang"
  },
  "schemaVersion": "3.4.14",
  "updatedAt": "2023-06-16T23:06:10.860Z",
  "networkType": "ethereum",
  "devdoc": {
    "kind": "dev",
    "methods": {},
    "version": 1
  },
  "userdoc": {
    "kind": "user",
    "methods": {},
    "version": 1
  }
}